{
  "abi": [
    {
      "inputs": [
        {
          "internalType": "string",
          "name": "_greeting",
          "type": "string"
        },
        {
          "internalType": "contract IERC20",
          "name": "_token",
          "type": "address"
        }
      ],
      "stateMutability": "nonpayable",
      "type": "constructor"
    },
    {
      "inputs": [],
      "name": "Greeter_InvalidGreeting",
      "type": "error"
    },
    {
      "inputs": [],
      "name": "Greeter_OnlyOwner",
      "type": "error"
    },
    {
      "anonymous": false,
      "inputs": [
        {
          "indexed": false,
          "internalType": "string",
          "name": "_greeting",
          "type": "string"
        }
      ],
      "name": "GreetingSet",
      "type": "event"
    },
    {
      "inputs": [],
      "name": "OWNER",
      "outputs": [
        {
          "internalType": "address",
          "name": "",
          "type": "address"
        }
      ],
      "stateMutability": "view",
      "type": "function"
    },
    {
      "inputs": [],
      "name": "greet",
      "outputs": [
        {
          "internalType": "string",
          "name": "_greeting",
          "type": "string"
        },
        {
          "internalType": "uint256",
          "name": "_balance",
          "type": "uint256"
        }
      ],
      "stateMutability": "view",
      "type": "function"
    },
    {
      "inputs": [],
      "name": "greeting",
      "outputs": [
        {
          "internalType": "string",
          "name": "",
          "type": "string"
        }
      ],
      "stateMutability": "view",
      "type": "function"
    },
    {
      "inputs": [
        {
          "internalType": "string",
          "name": "_greeting",
          "type": "string"
        },
        {
          "internalType": "uint256",
          "name": "_test",
          "type": "uint256"
        }
      ],
      "name": "setGreeting",
      "outputs": [],
      "stateMutability": "nonpayable",
      "type": "function"
    },
    {
      "inputs": [],
      "name": "token",
      "outputs": [
        {
          "internalType": "contract IERC20",
          "name": "",
          "type": "address"
        }
      ],
      "stateMutability": "view",
      "type": "function"
    }
  ],
  "bytecode": {
    "object": "0x60a06040523480156200001157600080fd5b5060405162000a7d38038062000a7d833981016040819052620000349162000243565b33608052600180546001600160a01b0319166001600160a01b0383161781556200006090839062000068565b505062000381565b6080516001600160a01b0316336001600160a01b0316146200009d57604051630bec364760e31b815260040160405180910390fd5b815160208301207f3a2db9fe7908dcc36d81824d2338fc3f1aff49ac357dd8c4840527fba27a5b9001620000e4576040516342883a0560e11b815260040160405180910390fd5b8151620000f990600090602085019062000137565b507fad181ee258ff92d26bf7ed2e6b571ef1cba3afc45f028b863b0f02adaffc2f06826040516200012b919062000310565b60405180910390a15050565b828054620001459062000345565b90600052602060002090601f016020900481019282620001695760008555620001b4565b82601f106200018457805160ff1916838001178555620001b4565b82800160010185558215620001b4579182015b82811115620001b457825182559160200191906001019062000197565b50620001c2929150620001c6565b5090565b5b80821115620001c25760008155600101620001c7565b634e487b7160e01b600052604160045260246000fd5b60005b8381101562000210578181015183820152602001620001f6565b8381111562000220576000848401525b50505050565b80516001600160a01b03811681146200023e57600080fd5b919050565b600080604083850312156200025757600080fd5b82516001600160401b03808211156200026f57600080fd5b818501915085601f8301126200028457600080fd5b815181811115620002995762000299620001dd565b604051601f8201601f19908116603f01168101908382118183101715620002c457620002c4620001dd565b81604052828152886020848701011115620002de57600080fd5b620002f1836020830160208801620001f3565b8096505050505050620003076020840162000226565b90509250929050565b602081526000825180602084015262000331816040850160208701620001f3565b601f01601f19169190910160400192915050565b600181811c908216806200035a57607f821691505b6020821081036200037b57634e487b7160e01b600052602260045260246000fd5b50919050565b6080516106da620003a3600039600081816071015261013501526106da6000f3fe608060405234801561001057600080fd5b50600436106100675760003560e01c8063cfae321711610050578063cfae3217146100d2578063ef690cc0146100e8578063fc0c546a146100fd57600080fd5b8063117803e31461006c57806382884df4146100bd575b600080fd5b6100937f000000000000000000000000000000000000000000000000000000000000000081565b60405173ffffffffffffffffffffffffffffffffffffffff90911681526020015b60405180910390f35b6100d06100cb3660046104be565b61011d565b005b6100da61023a565b6040516100b49291906105fc565b6100f0610368565b6040516100b4919061061e565b6001546100939073ffffffffffffffffffffffffffffffffffffffff1681565b3373ffffffffffffffffffffffffffffffffffffffff7f0000000000000000000000000000000000000000000000000000000000000000161461018c576040517f5f61b23800000000000000000000000000000000000000000000000000000000815260040160405180910390fd5b815160208301207f3a2db9fe7908dcc36d81824d2338fc3f1aff49ac357dd8c4840527fba27a5b90016101eb576040517f8510740a00000000000000000000000000000000000000000000000000000000815260040160405180910390fd5b81516101fe9060009060208501906103f6565b507fad181ee258ff92d26bf7ed2e6b571ef1cba3afc45f028b863b0f02adaffc2f068260405161022e919061061e565b60405180910390a15050565b6060600080805461024a90610638565b80601f016020809104026020016040519081016040528092919081815260200182805461027690610638565b80156102c35780601f10610298576101008083540402835291602001916102c3565b820191906000526020600020905b8154815290600101906020018083116102a657829003601f168201915b50506001546040517f70a0823100000000000000000000000000000000000000000000000000000000815233600482015294965073ffffffffffffffffffffffffffffffffffffffff16936370a08231935060240191506103219050565b602060405180830381865afa15801561033e573d6000803e3d6000fd5b505050506040513d601f19601f82011682018060405250810190610362919061068b565b90509091565b6000805461037590610638565b80601f01602080910402602001604051908101604052809291908181526020018280546103a190610638565b80156103ee5780601f106103c3576101008083540402835291602001916103ee565b820191906000526020600020905b8154815290600101906020018083116103d157829003601f168201915b505050505081565b82805461040290610638565b90600052602060002090601f016020900481019282610424576000855561046a565b82601f1061043d57805160ff191683800117855561046a565b8280016001018555821561046a579182015b8281111561046a57825182559160200191906001019061044f565b5061047692915061047a565b5090565b5b80821115610476576000815560010161047b565b7f4e487b7100000000000000000000000000000000000000000000000000000000600052604160045260246000fd5b600080604083850312156104d157600080fd5b823567ffffffffffffffff808211156104e957600080fd5b818501915085601f8301126104fd57600080fd5b81358181111561050f5761050f61048f565b604051601f82017fffffffffffffffffffffffffffffffffffffffffffffffffffffffffffffffe0908116603f011681019083821181831017156105555761055561048f565b8160405282815288602084870101111561056e57600080fd5b826020860160208301376000602093820184015298969091013596505050505050565b6000815180845260005b818110156105b75760208185018101518683018201520161059b565b818111156105c9576000602083870101525b50601f017fffffffffffffffffffffffffffffffffffffffffffffffffffffffffffffffe0169290920160200192915050565b60408152600061060f6040830185610591565b90508260208301529392505050565b6020815260006106316020830184610591565b9392505050565b600181811c9082168061064c57607f821691505b602082108103610685577f4e487b7100000000000000000000000000000000000000000000000000000000600052602260045260246000fd5b50919050565b60006020828403121561069d57600080fd5b505191905056fea2646970667358221220833b8d91499d57671febbc2701de54a98d43fabbb4bd705a67b92120f8baad6764736f6c634300080e0033",
    "linkReferences": {}
  },
  "methodIdentifiers": {
    "OWNER()": "117803e3",
    "greet()": "cfae3217",
    "greeting()": "ef690cc0",
    "setGreeting(string,uint256)": "82884df4",
    "token()": "fc0c546a"
  },
  "id": 1
}